{"abi":[{"type":"constructor","inputs":[{"name":"_bod","type":"address","internalType":"address"}],"stateMutability":"nonpayable"},{"type":"function","name":"COLLATERAL_RATIO","inputs":[],"outputs":[{"name":"","type":"uint256","internalType":"uint256"}],"stateMutability":"view"},{"type":"function","name":"LIQUIDATION_THRESHOLD","inputs":[],"outputs":[{"name":"","type":"uint256","internalType":"uint256"}],"stateMutability":"view"},{"type":"function","name":"allowance","inputs":[{"name":"owner","type":"address","internalType":"address"},{"name":"spender","type":"address","internalType":"address"}],"outputs":[{"name":"","type":"uint256","internalType":"uint256"}],"stateMutability":"view"},{"type":"function","name":"approve","inputs":[{"name":"spender","type":"address","internalType":"address"},{"name":"value","type":"uint256","internalType":"uint256"}],"outputs":[{"name":"","type":"bool","internalType":"bool"}],"stateMutability":"nonpayable"},{"type":"function","name":"balanceOf","inputs":[{"name":"account","type":"address","internalType":"address"}],"outputs":[{"name":"","type":"uint256","internalType":"uint256"}],"stateMutability":"view"},{"type":"function","name":"bod","inputs":[],"outputs":[{"name":"","type":"address","internalType":"contract Bod"}],"stateMutability":"view"},{"type":"function","name":"burnStablecoin","inputs":[{"name":"amount","type":"uint256","internalType":"uint256"}],"outputs":[],"stateMutability":"nonpayable"},{"type":"function","name":"decimals","inputs":[],"outputs":[{"name":"","type":"uint8","internalType":"uint8"}],"stateMutability":"view"},{"type":"function","name":"getLockedBitcoin","inputs":[],"outputs":[{"name":"","type":"uint256","internalType":"uint256"}],"stateMutability":"view"},{"type":"function","name":"liquidate","inputs":[],"outputs":[],"stateMutability":"nonpayable"},{"type":"function","name":"lockBod","inputs":[],"outputs":[],"stateMutability":"nonpayable"},{"type":"function","name":"mintStablecoin","inputs":[{"name":"amount","type":"uint256","internalType":"uint256"}],"outputs":[],"stateMutability":"nonpayable"},{"type":"function","name":"name","inputs":[],"outputs":[{"name":"","type":"string","internalType":"string"}],"stateMutability":"view"},{"type":"function","name":"owner","inputs":[],"outputs":[{"name":"","type":"address","internalType":"address"}],"stateMutability":"view"},{"type":"function","name":"renounceOwnership","inputs":[],"outputs":[],"stateMutability":"nonpayable"},{"type":"function","name":"symbol","inputs":[],"outputs":[{"name":"","type":"string","internalType":"string"}],"stateMutability":"view"},{"type":"function","name":"totalSupply","inputs":[],"outputs":[{"name":"","type":"uint256","internalType":"uint256"}],"stateMutability":"view"},{"type":"function","name":"transfer","inputs":[{"name":"to","type":"address","internalType":"address"},{"name":"value","type":"uint256","internalType":"uint256"}],"outputs":[{"name":"","type":"bool","internalType":"bool"}],"stateMutability":"nonpayable"},{"type":"function","name":"transferFrom","inputs":[{"name":"from","type":"address","internalType":"address"},{"name":"to","type":"address","internalType":"address"},{"name":"value","type":"uint256","internalType":"uint256"}],"outputs":[{"name":"","type":"bool","internalType":"bool"}],"stateMutability":"nonpayable"},{"type":"function","name":"transferOwnership","inputs":[{"name":"newOwner","type":"address","internalType":"address"}],"outputs":[],"stateMutability":"nonpayable"},{"type":"function","name":"unlockBod","inputs":[],"outputs":[],"stateMutability":"nonpayable"},{"type":"event","name":"Approval","inputs":[{"name":"owner","type":"address","indexed":true,"internalType":"address"},{"name":"spender","type":"address","indexed":true,"internalType":"address"},{"name":"value","type":"uint256","indexed":false,"internalType":"uint256"}],"anonymous":false},{"type":"event","name":"CollateralLiquidated","inputs":[{"name":"user","type":"address","indexed":true,"internalType":"address"},{"name":"amount","type":"uint256","indexed":false,"internalType":"uint256"}],"anonymous":false},{"type":"event","name":"OwnershipTransferred","inputs":[{"name":"previousOwner","type":"address","indexed":true,"internalType":"address"},{"name":"newOwner","type":"address","indexed":true,"internalType":"address"}],"anonymous":false},{"type":"event","name":"StablecoinBurned","inputs":[{"name":"user","type":"address","indexed":true,"internalType":"address"},{"name":"amount","type":"uint256","indexed":false,"internalType":"uint256"}],"anonymous":false},{"type":"event","name":"StablecoinMinted","inputs":[{"name":"user","type":"address","indexed":true,"internalType":"address"},{"name":"amount","type":"uint256","indexed":false,"internalType":"uint256"}],"anonymous":false},{"type":"event","name":"Transfer","inputs":[{"name":"from","type":"address","indexed":true,"internalType":"address"},{"name":"to","type":"address","indexed":true,"internalType":"address"},{"name":"value","type":"uint256","indexed":false,"internalType":"uint256"}],"anonymous":false},{"type":"error","name":"ERC20InsufficientAllowance","inputs":[{"name":"spender","type":"address","internalType":"address"},{"name":"allowance","type":"uint256","internalType":"uint256"},{"name":"needed","type":"uint256","internalType":"uint256"}]},{"type":"error","name":"ERC20InsufficientBalance","inputs":[{"name":"sender","type":"address","internalType":"address"},{"name":"balance","type":"uint256","internalType":"uint256"},{"name":"needed","type":"uint256","internalType":"uint256"}]},{"type":"error","name":"ERC20InvalidApprover","inputs":[{"name":"approver","type":"address","internalType":"address"}]},{"type":"error","name":"ERC20InvalidReceiver","inputs":[{"name":"receiver","type":"address","internalType":"address"}]},{"type":"error","name":"ERC20InvalidSender","inputs":[{"name":"sender","type":"address","internalType":"address"}]},{"type":"error","name":"ERC20InvalidSpender","inputs":[{"name":"spender","type":"address","internalType":"address"}]},{"type":"error","name":"OwnableInvalidOwner","inputs":[{"name":"owner","type":"address","internalType":"address"}]},{"type":"error","name":"OwnableUnauthorizedAccount","inputs":[{"name":"account","type":"address","internalType":"address"}]}],"bytecode":{"object":"0x608060405234801561001057600080fd5b5060405161173838038061173883398101604081905261002f91610350565b336040518060400160405280600f81526020016e2124aa219029ba30b13632b1b7b4b760891b815250604051806040016040528060048152602001634249544360e01b8152508160039081610084919061041f565b506004610091828261041f565b5050506001600160a01b0381166100c357604051631e4fbdf760e01b8152600060048201526024015b60405180910390fd5b6100cc816102fe565b50600680546001600160a01b0319166001600160a01b0383169081179091556040805163220949e160e11b8152905133929163441293c29160048083019260209291908290030181865afa158015610128573d6000803e3d6000fd5b505050506040513d601f19601f8201168201806040525081019061014c9190610350565b6001600160a01b0316146101b35760405162461bcd60e51b815260206004820152602860248201527f434450436f6e74726163743a2043616c6c6572206973206e6f7420746865204260448201526737b21037bbb732b960c11b60648201526084016100ba565b60065460408051630d3c563560e21b815290516000926001600160a01b0316916334f158d49160048083019260209291908290030181865afa1580156101fd573d6000803e3d6000fd5b505050506040513d601f19601f8201168201806040525081019061022191906104dd565b9050600660009054906101000a90046001600160a01b03166001600160a01b0316636cbb721f6040518163ffffffff1660e01b8152600401602060405180830381865afa158015610276573d6000803e3d6000fd5b505050506040513d601f19601f8201168201806040525081019061029a91906104f6565b6102f75760405162461bcd60e51b815260206004820152602860248201527f434450436f6e74726163743a20496e73756666696369656e7420426974636f696044820152671b881a5b88109bd960c21b60648201526084016100ba565b5050610518565b600580546001600160a01b038381166001600160a01b0319831681179093556040519116919082907f8be0079c531659141344cd1fd0a4f28419497f9722a3daafe3b4186f6b6457e090600090a35050565b60006020828403121561036257600080fd5b81516001600160a01b038116811461037957600080fd5b9392505050565b634e487b7160e01b600052604160045260246000fd5b600181811c908216806103aa57607f821691505b6020821081036103ca57634e487b7160e01b600052602260045260246000fd5b50919050565b601f82111561041a57806000526020600020601f840160051c810160208510156103f75750805b601f840160051c820191505b818110156104175760008155600101610403565b50505b505050565b81516001600160401b0381111561043857610438610380565b61044c816104468454610396565b846103d0565b6020601f82116001811461048057600083156104685750848201515b600019600385901b1c1916600184901b178455610417565b600084815260208120601f198516915b828110156104b05787850151825560209485019460019092019101610490565b50848210156104ce5786840151600019600387901b60f8161c191681555b50505050600190811b01905550565b6000602082840312156104ef57600080fd5b5051919050565b60006020828403121561050857600080fd5b8151801515811461037957600080fd5b611211806105276000396000f3fe608060405234801561001057600080fd5b50600436106101375760003560e01c80638b644650116100b8578063a0b4dbb11161007c578063a0b4dbb11461025b578063a9059cbb1461026e578063d9e69a0514610281578063dd62ed3e14610289578063f030da46146102c2578063f2fde38b146102ca57600080fd5b80638b6446501461021f5780638da5cb5b1461022757806390218cff1461023857806390a8ae9b1461024b57806395d89b411461025357600080fd5b8063313ce567116100ff578063313ce567146101ac57806334f158d4146101bb57806370a08231146101c3578063715018a6146101ec5780637d05a164146101f457600080fd5b806306fdde031461013c578063095ea7b31461015a57806318160ddd1461017d57806323b872dd1461018f57806328a07025146101a2575b600080fd5b6101446102dd565b6040516101519190610f8e565b60405180910390f35b61016d610168366004610ff1565b61036f565b6040519015158152602001610151565b6002545b604051908152602001610151565b61016d61019d36600461101d565b610389565b6101aa6103ad565b005b60405160128152602001610151565b610181610588565b6101816101d136600461105e565b6001600160a01b031660009081526020819052604090205490565b6101aa6105fb565b600654610207906001600160a01b031681565b6040516001600160a01b039091168152602001610151565b6101aa61060f565b6005546001600160a01b0316610207565b6101aa610246366004611082565b6106f7565b610181607881565b6101446107fb565b6101aa610269366004611082565b61080a565b61016d61027c366004610ff1565b610949565b610181609681565b61018161029736600461109b565b6001600160a01b03918216600090815260016020908152604080832093909416825291909152205490565b6101aa610957565b6101aa6102d836600461105e565b610b79565b6060600380546102ec906110d4565b80601f0160208091040260200160405190810160405280929190818152602001828054610318906110d4565b80156103655780601f1061033a57610100808354040283529160200191610365565b820191906000526020600020905b81548152906001019060200180831161034857829003601f168201915b5050505050905090565b60003361037d818585610bb7565b60019150505b92915050565b600033610397858285610bc9565b6103a2858585610c41565b506001949350505050565b6103b5610ca0565b600654600160a01b900460ff166104135760405162461bcd60e51b815260206004820152601f60248201527f434450436f6e74726163743a20426f64206d757374206265206c6f636b65640060448201526064015b60405180910390fd5b60065460408051630d3c563560e21b815290516000926001600160a01b0316916334f158d49160048083019260209291908290030181865afa15801561045d573d6000803e3d6000fd5b505050506040513d601f19601f82011682018060405250810190610481919061110e565b9050600061048e60025490565b61049983606461113d565b6104a39190611154565b90506078811061051b5760405162461bcd60e51b815260206004820152603960248201527f434450436f6e74726163743a20436f6c6c61746572616c20726174696f20616260448201527f6f7665206c69717569646174696f6e207468726573686f6c6400000000000000606482015260840161040a565b6000609661052a84606461113d565b6105349190611154565b6002546105419190611176565b905061054d3082610ccd565b60405181815230907ffa149b6f966139cc74dfaf2610f7b54d8823dbeed646b7da48d8144f510c3f21906020015b60405180910390a2505050565b60065460408051630d3c563560e21b815290516000926001600160a01b0316916334f158d49160048083019260209291908290030181865afa1580156105d2573d6000803e3d6000fd5b505050506040513d601f19601f820116820180604052508101906105f6919061110e565b905090565b610603610ca0565b61060d6000610d07565b565b610617610ca0565b6002541561068d5760405162461bcd60e51b815260206004820152603f60248201527f434450436f6e74726163743a2043616e6e6f7420756e6c6f636b207768696c6560448201527f20737461626c65636f696e732061726520696e2063697263756c6174696f6e00606482015260840161040a565b600660009054906101000a90046001600160a01b03166001600160a01b031663a69df4b56040518163ffffffff1660e01b8152600401600060405180830381600087803b1580156106dd57600080fd5b505af11580156106f1573d6000803e3d6000fd5b50505050565b600654600160a01b900460ff166107505760405162461bcd60e51b815260206004820152601f60248201527f434450436f6e74726163743a20426f64206d757374206265206c6f636b656400604482015260640161040a565b336000908152602081905260409020548111156107b95760405162461bcd60e51b815260206004820152602160248201527f434450436f6e74726163743a20496e73756666696369656e742062616c616e636044820152606560f81b606482015260840161040a565b6107c33382610ccd565b60405181815233907fe7e268f551409231c20990b9b20fac42acd664f119a5d1e4184b6f6cd87d97bb9060200160405180910390a250565b6060600480546102ec906110d4565b60065460408051630d3c563560e21b815290516000926001600160a01b0316916334f158d49160048083019260209291908290030181865afa158015610854573d6000803e3d6000fd5b505050506040513d601f19601f82011682018060405250810190610878919061110e565b90506000609661088983606461113d565b6108939190611154565b905080836108a060025490565b6108aa9190611189565b111561090d5760405162461bcd60e51b815260206004820152602c60248201527f434450436f6e74726163743a2045786365656473206d6178696d756d206d696e60448201526b1d18589b1948185b5bdd5b9d60a21b606482015260840161040a565b6109173384610d59565b60405183815233907fb62709b93689632d1518eaa3c90dd530ad99c37fbd21c13670b6f385eaf9b60d9060200161057b565b60003361037d818585610c41565b61095f610ca0565b6006546040805163220949e160e11b8152905130926001600160a01b03169163441293c29160048083019260209291908290030181865afa1580156109a8573d6000803e3d6000fd5b505050506040513d601f19601f820116820180604052508101906109cc919061119c565b6001600160a01b031614610a385760405162461bcd60e51b815260206004820152602d60248201527f434450436f6e74726163743a20434450436f6e7472616374206973206e6f742060448201526c3a3432902137b21037bbb732b960991b606482015260840161040a565b600660009054906101000a90046001600160a01b03166001600160a01b031663a4e2d6346040518163ffffffff1660e01b8152600401602060405180830381865afa158015610a8b573d6000803e3d6000fd5b505050506040513d601f19601f82011682018060405250810190610aaf91906111b9565b15610b075760405162461bcd60e51b815260206004820152602260248201527f434450436f6e74726163743a20426f6420697320616c7265616479206c6f636b604482015261195960f21b606482015260840161040a565b60065460405163f435f5a760e01b81523060048201526001600160a01b039091169063f435f5a790602401600060405180830381600087803b158015610b4c57600080fd5b505af1158015610b60573d6000803e3d6000fd5b50506006805460ff60a01b1916600160a01b1790555050565b610b81610ca0565b6001600160a01b038116610bab57604051631e4fbdf760e01b81526000600482015260240161040a565b610bb481610d07565b50565b610bc48383836001610d8f565b505050565b6001600160a01b0383811660009081526001602090815260408083209386168352929052205460001981146106f15781811015610c3257604051637dc7a0d960e11b81526001600160a01b0384166004820152602481018290526044810183905260640161040a565b6106f184848484036000610d8f565b6001600160a01b038316610c6b57604051634b637e8f60e11b81526000600482015260240161040a565b6001600160a01b038216610c955760405163ec442f0560e01b81526000600482015260240161040a565b610bc4838383610e64565b6005546001600160a01b0316331461060d5760405163118cdaa760e01b815233600482015260240161040a565b6001600160a01b038216610cf757604051634b637e8f60e11b81526000600482015260240161040a565b610d0382600083610e64565b5050565b600580546001600160a01b038381166001600160a01b0319831681179093556040519116919082907f8be0079c531659141344cd1fd0a4f28419497f9722a3daafe3b4186f6b6457e090600090a35050565b6001600160a01b038216610d835760405163ec442f0560e01b81526000600482015260240161040a565b610d0360008383610e64565b6001600160a01b038416610db95760405163e602df0560e01b81526000600482015260240161040a565b6001600160a01b038316610de357604051634a1406b160e11b81526000600482015260240161040a565b6001600160a01b03808516600090815260016020908152604080832093871683529290522082905580156106f157826001600160a01b0316846001600160a01b03167f8c5be1e5ebec7d5bd14f71427d1e84f3dd0314c0f7b2291e5b200ac8c7c3b92584604051610e5691815260200190565b60405180910390a350505050565b6001600160a01b038316610e8f578060026000828254610e849190611189565b90915550610f019050565b6001600160a01b03831660009081526020819052604090205481811015610ee25760405163391434e360e21b81526001600160a01b0385166004820152602481018290526044810183905260640161040a565b6001600160a01b03841660009081526020819052604090209082900390555b6001600160a01b038216610f1d57600280548290039055610f3c565b6001600160a01b03821660009081526020819052604090208054820190555b816001600160a01b0316836001600160a01b03167fddf252ad1be2c89b69c2b068fc378daa952ba7f163c4a11628f55a4df523b3ef83604051610f8191815260200190565b60405180910390a3505050565b602081526000825180602084015260005b81811015610fbc5760208186018101516040868401015201610f9f565b506000604082850101526040601f19601f83011684010191505092915050565b6001600160a01b0381168114610bb457600080fd5b6000806040838503121561100457600080fd5b823561100f81610fdc565b946020939093013593505050565b60008060006060848603121561103257600080fd5b833561103d81610fdc565b9250602084013561104d81610fdc565b929592945050506040919091013590565b60006020828403121561107057600080fd5b813561107b81610fdc565b9392505050565b60006020828403121561109457600080fd5b5035919050565b600080604083850312156110ae57600080fd5b82356110b981610fdc565b915060208301356110c981610fdc565b809150509250929050565b600181811c908216806110e857607f821691505b60208210810361110857634e487b7160e01b600052602260045260246000fd5b50919050565b60006020828403121561112057600080fd5b5051919050565b634e487b7160e01b600052601160045260246000fd5b808202811582820484141761038357610383611127565b60008261117157634e487b7160e01b600052601260045260246000fd5b500490565b8181038181111561038357610383611127565b8082018082111561038357610383611127565b6000602082840312156111ae57600080fd5b815161107b81610fdc565b6000602082840312156111cb57600080fd5b8151801515811461107b57600080fdfea2646970667358221220dcf07b0dfa221e2c11bdb1f23ec110d697ac31cccc02449f47f9ffb09db229dd64736f6c634300081b0033","linkReferences":{}},"methodIdentifiers":{"COLLATERAL_RATIO()":"d9e69a05","LIQUIDATION_THRESHOLD()":"90a8ae9b","allowance(address,address)":"dd62ed3e","approve(address,uint256)":"095ea7b3","balanceOf(address)":"70a08231","bod()":"7d05a164","burnStablecoin(uint256)":"90218cff","decimals()":"313ce567","getLockedBitcoin()":"34f158d4","liquidate()":"28a07025","lockBod()":"f030da46","mintStablecoin(uint256)":"a0b4dbb1","name()":"06fdde03","owner()":"8da5cb5b","renounceOwnership()":"715018a6","symbol()":"95d89b41","totalSupply()":"18160ddd","transfer(address,uint256)":"a9059cbb","transferFrom(address,address,uint256)":"23b872dd","transferOwnership(address)":"f2fde38b","unlockBod()":"8b644650"},"id":41}