{"abi":[{"type":"constructor","inputs":[{"name":"_bod","type":"address","internalType":"address"}],"stateMutability":"nonpayable"},{"type":"function","name":"COLLATERAL_RATIO","inputs":[],"outputs":[{"name":"","type":"uint256","internalType":"uint256"}],"stateMutability":"view"},{"type":"function","name":"LIQUIDATION_THRESHOLD","inputs":[],"outputs":[{"name":"","type":"uint256","internalType":"uint256"}],"stateMutability":"view"},{"type":"function","name":"allowance","inputs":[{"name":"owner","type":"address","internalType":"address"},{"name":"spender","type":"address","internalType":"address"}],"outputs":[{"name":"","type":"uint256","internalType":"uint256"}],"stateMutability":"view"},{"type":"function","name":"approve","inputs":[{"name":"spender","type":"address","internalType":"address"},{"name":"value","type":"uint256","internalType":"uint256"}],"outputs":[{"name":"","type":"bool","internalType":"bool"}],"stateMutability":"nonpayable"},{"type":"function","name":"balanceOf","inputs":[{"name":"account","type":"address","internalType":"address"}],"outputs":[{"name":"","type":"uint256","internalType":"uint256"}],"stateMutability":"view"},{"type":"function","name":"bod","inputs":[],"outputs":[{"name":"","type":"address","internalType":"contract Bod"}],"stateMutability":"view"},{"type":"function","name":"burnStablecoin","inputs":[{"name":"amount","type":"uint256","internalType":"uint256"}],"outputs":[],"stateMutability":"nonpayable"},{"type":"function","name":"decimals","inputs":[],"outputs":[{"name":"","type":"uint8","internalType":"uint8"}],"stateMutability":"view"},{"type":"function","name":"liquidate","inputs":[],"outputs":[],"stateMutability":"nonpayable"},{"type":"function","name":"lockBod","inputs":[],"outputs":[],"stateMutability":"nonpayable"},{"type":"function","name":"mintStablecoin","inputs":[{"name":"amount","type":"uint256","internalType":"uint256"}],"outputs":[],"stateMutability":"nonpayable"},{"type":"function","name":"name","inputs":[],"outputs":[{"name":"","type":"string","internalType":"string"}],"stateMutability":"view"},{"type":"function","name":"owner","inputs":[],"outputs":[{"name":"","type":"address","internalType":"address"}],"stateMutability":"view"},{"type":"function","name":"renounceOwnership","inputs":[],"outputs":[],"stateMutability":"nonpayable"},{"type":"function","name":"symbol","inputs":[],"outputs":[{"name":"","type":"string","internalType":"string"}],"stateMutability":"view"},{"type":"function","name":"totalSupply","inputs":[],"outputs":[{"name":"","type":"uint256","internalType":"uint256"}],"stateMutability":"view"},{"type":"function","name":"transfer","inputs":[{"name":"to","type":"address","internalType":"address"},{"name":"value","type":"uint256","internalType":"uint256"}],"outputs":[{"name":"","type":"bool","internalType":"bool"}],"stateMutability":"nonpayable"},{"type":"function","name":"transferFrom","inputs":[{"name":"from","type":"address","internalType":"address"},{"name":"to","type":"address","internalType":"address"},{"name":"value","type":"uint256","internalType":"uint256"}],"outputs":[{"name":"","type":"bool","internalType":"bool"}],"stateMutability":"nonpayable"},{"type":"function","name":"transferOwnership","inputs":[{"name":"newOwner","type":"address","internalType":"address"}],"outputs":[],"stateMutability":"nonpayable"},{"type":"function","name":"unlockBod","inputs":[],"outputs":[],"stateMutability":"nonpayable"},{"type":"event","name":"Approval","inputs":[{"name":"owner","type":"address","indexed":true,"internalType":"address"},{"name":"spender","type":"address","indexed":true,"internalType":"address"},{"name":"value","type":"uint256","indexed":false,"internalType":"uint256"}],"anonymous":false},{"type":"event","name":"CollateralLiquidated","inputs":[{"name":"user","type":"address","indexed":true,"internalType":"address"},{"name":"amount","type":"uint256","indexed":false,"internalType":"uint256"}],"anonymous":false},{"type":"event","name":"OwnershipTransferred","inputs":[{"name":"previousOwner","type":"address","indexed":true,"internalType":"address"},{"name":"newOwner","type":"address","indexed":true,"internalType":"address"}],"anonymous":false},{"type":"event","name":"StablecoinBurned","inputs":[{"name":"user","type":"address","indexed":true,"internalType":"address"},{"name":"amount","type":"uint256","indexed":false,"internalType":"uint256"}],"anonymous":false},{"type":"event","name":"StablecoinMinted","inputs":[{"name":"user","type":"address","indexed":true,"internalType":"address"},{"name":"amount","type":"uint256","indexed":false,"internalType":"uint256"}],"anonymous":false},{"type":"event","name":"Transfer","inputs":[{"name":"from","type":"address","indexed":true,"internalType":"address"},{"name":"to","type":"address","indexed":true,"internalType":"address"},{"name":"value","type":"uint256","indexed":false,"internalType":"uint256"}],"anonymous":false},{"type":"error","name":"ERC20InsufficientAllowance","inputs":[{"name":"spender","type":"address","internalType":"address"},{"name":"allowance","type":"uint256","internalType":"uint256"},{"name":"needed","type":"uint256","internalType":"uint256"}]},{"type":"error","name":"ERC20InsufficientBalance","inputs":[{"name":"sender","type":"address","internalType":"address"},{"name":"balance","type":"uint256","internalType":"uint256"},{"name":"needed","type":"uint256","internalType":"uint256"}]},{"type":"error","name":"ERC20InvalidApprover","inputs":[{"name":"approver","type":"address","internalType":"address"}]},{"type":"error","name":"ERC20InvalidReceiver","inputs":[{"name":"receiver","type":"address","internalType":"address"}]},{"type":"error","name":"ERC20InvalidSender","inputs":[{"name":"sender","type":"address","internalType":"address"}]},{"type":"error","name":"ERC20InvalidSpender","inputs":[{"name":"spender","type":"address","internalType":"address"}]},{"type":"error","name":"OwnableInvalidOwner","inputs":[{"name":"owner","type":"address","internalType":"address"}]},{"type":"error","name":"OwnableUnauthorizedAccount","inputs":[{"name":"account","type":"address","internalType":"address"}]}],"bytecode":{"object":"0x608060405234801561001057600080fd5b5060405161168c38038061168c83398101604081905261002f9161033c565b336040518060400160405280600f81526020016e2124aa219029ba30b13632b1b7b4b760891b815250604051806040016040528060048152602001634249544360e01b8152508160039081610084919061040b565b506004610091828261040b565b5050506001600160a01b0381166100c357604051631e4fbdf760e01b8152600060048201526024015b60405180910390fd5b6100cc816102ea565b50600680546001600160a01b0319166001600160a01b0383169081179091556040805163220949e160e11b8152905133929163441293c29160048083019260209291908290030181865afa158015610128573d6000803e3d6000fd5b505050506040513d601f19601f8201168201806040525081019061014c919061033c565b6001600160a01b0316146101b35760405162461bcd60e51b815260206004820152602860248201527f434450436f6e74726163743a2043616c6c6572206973206e6f7420746865204260448201526737b21037bbb732b960c11b60648201526084016100ba565b600660009054906101000a90046001600160a01b03166001600160a01b0316636cbb721f6040518163ffffffff1660e01b8152600401602060405180830381865afa158015610206573d6000803e3d6000fd5b505050506040513d601f19601f8201168201806040525081019061022a91906104c9565b6102875760405162461bcd60e51b815260206004820152602860248201527f434450436f6e74726163743a20496e73756666696369656e7420426974636f696044820152671b881a5b88109bd960c21b60648201526084016100ba565b60065460405163268c1c3360e11b81523060048201526001600160a01b0390911690634d18386690602401600060405180830381600087803b1580156102cc57600080fd5b505af11580156102e0573d6000803e3d6000fd5b50505050506104eb565b600580546001600160a01b038381166001600160a01b0319831681179093556040519116919082907f8be0079c531659141344cd1fd0a4f28419497f9722a3daafe3b4186f6b6457e090600090a35050565b60006020828403121561034e57600080fd5b81516001600160a01b038116811461036557600080fd5b9392505050565b634e487b7160e01b600052604160045260246000fd5b600181811c9082168061039657607f821691505b6020821081036103b657634e487b7160e01b600052602260045260246000fd5b50919050565b601f82111561040657806000526020600020601f840160051c810160208510156103e35750805b601f840160051c820191505b8181101561040357600081556001016103ef565b50505b505050565b81516001600160401b038111156104245761042461036c565b610438816104328454610382565b846103bc565b6020601f82116001811461046c57600083156104545750848201515b600019600385901b1c1916600184901b178455610403565b600084815260208120601f198516915b8281101561049c578785015182556020948501946001909201910161047c565b50848210156104ba5786840151600019600387901b60f8161c191681555b50505050600190811b01905550565b6000602082840312156104db57600080fd5b8151801515811461036557600080fd5b611192806104fa6000396000f3fe608060405234801561001057600080fd5b506004361061012c5760003560e01c80638da5cb5b116100ad578063a9059cbb11610071578063a9059cbb1461025b578063d9e69a051461026e578063dd62ed3e14610276578063f030da46146102af578063f2fde38b146102b757600080fd5b80638da5cb5b1461021457806390218cff1461022557806390a8ae9b1461023857806395d89b4114610240578063a0b4dbb11461024857600080fd5b8063313ce567116100f4578063313ce567146101a157806370a08231146101b0578063715018a6146101d95780637d05a164146101e15780638b6446501461020c57600080fd5b806306fdde0314610131578063095ea7b31461014f57806318160ddd1461017257806323b872dd1461018457806328a0702514610197575b600080fd5b6101396102ca565b6040516101469190610ed8565b60405180910390f35b61016261015d366004610f3b565b61035c565b6040519015158152602001610146565b6002545b604051908152602001610146565b610162610192366004610f67565b610376565b61019f61039a565b005b60405160128152602001610146565b6101766101be366004610fa8565b6001600160a01b031660009081526020819052604090205490565b61019f610549565b6006546101f4906001600160a01b031681565b6040516001600160a01b039091168152602001610146565b61019f61055d565b6005546001600160a01b03166101f4565b61019f610233366004610fcc565b610645565b610176607881565b610139610719565b61019f610256366004610fcc565b610728565b610162610269366004610f3b565b610898565b610176609681565b610176610284366004610fe5565b6001600160a01b03918216600090815260016020908152604080832093909416825291909152205490565b61019f6108a6565b61019f6102c5366004610fa8565b610ac3565b6060600380546102d99061101e565b80601f01602080910402602001604051908101604052809291908181526020018280546103059061101e565b80156103525780601f1061032757610100808354040283529160200191610352565b820191906000526020600020905b81548152906001019060200180831161033557829003601f168201915b5050505050905090565b60003361036a818585610b01565b60019150505b92915050565b600033610384858285610b13565b61038f858585610b8b565b506001949350505050565b6103a2610bea565b600654600160a01b900460ff166103d45760405162461bcd60e51b81526004016103cb90611058565b60405180910390fd5b60065460408051630d3c563560e21b815290516000926001600160a01b0316916334f158d49160048083019260209291908290030181865afa15801561041e573d6000803e3d6000fd5b505050506040513d601f19601f82011682018060405250810190610442919061108f565b9050600061044f60025490565b61045a8360646110be565b61046491906110d5565b9050607881106104dc5760405162461bcd60e51b815260206004820152603960248201527f434450436f6e74726163743a20436f6c6c61746572616c20726174696f20616260448201527f6f7665206c69717569646174696f6e207468726573686f6c640000000000000060648201526084016103cb565b600060966104eb8460646110be565b6104f591906110d5565b60025461050291906110f7565b905061050e3082610c17565b60405181815230907ffa149b6f966139cc74dfaf2610f7b54d8823dbeed646b7da48d8144f510c3f21906020015b60405180910390a2505050565b610551610bea565b61055b6000610c51565b565b610565610bea565b600254156105db5760405162461bcd60e51b815260206004820152603f60248201527f434450436f6e74726163743a2043616e6e6f7420756e6c6f636b207768696c6560448201527f20737461626c65636f696e732061726520696e2063697263756c6174696f6e0060648201526084016103cb565b600660009054906101000a90046001600160a01b03166001600160a01b031663a69df4b56040518163ffffffff1660e01b8152600401600060405180830381600087803b15801561062b57600080fd5b505af115801561063f573d6000803e3d6000fd5b50505050565b600654600160a01b900460ff1661066e5760405162461bcd60e51b81526004016103cb90611058565b336000908152602081905260409020548111156106d75760405162461bcd60e51b815260206004820152602160248201527f434450436f6e74726163743a20496e73756666696369656e742062616c616e636044820152606560f81b60648201526084016103cb565b6106e13382610c17565b60405181815233907fe7e268f551409231c20990b9b20fac42acd664f119a5d1e4184b6f6cd87d97bb9060200160405180910390a250565b6060600480546102d99061101e565b610730610bea565b600654600160a01b900460ff166107595760405162461bcd60e51b81526004016103cb90611058565b60065460408051630d3c563560e21b815290516000926001600160a01b0316916334f158d49160048083019260209291908290030181865afa1580156107a3573d6000803e3d6000fd5b505050506040513d601f19601f820116820180604052508101906107c7919061108f565b9050600060966107d88360646110be565b6107e291906110d5565b905080836107ef60025490565b6107f9919061110a565b111561085c5760405162461bcd60e51b815260206004820152602c60248201527f434450436f6e74726163743a2045786365656473206d6178696d756d206d696e60448201526b1d18589b1948185b5bdd5b9d60a21b60648201526084016103cb565b6108663384610ca3565b60405183815233907fb62709b93689632d1518eaa3c90dd530ad99c37fbd21c13670b6f385eaf9b60d9060200161053c565b60003361036a818585610b8b565b6108ae610bea565b6006546040805163220949e160e11b8152905133926001600160a01b03169163441293c29160048083019260209291908290030181865afa1580156108f7573d6000803e3d6000fd5b505050506040513d601f19601f8201168201806040525081019061091b919061111d565b6001600160a01b0316146109825760405162461bcd60e51b815260206004820152602860248201527f434450436f6e74726163743a2043616c6c6572206973206e6f7420746865204260448201526737b21037bbb732b960c11b60648201526084016103cb565b600660009054906101000a90046001600160a01b03166001600160a01b031663a4e2d6346040518163ffffffff1660e01b8152600401602060405180830381865afa1580156109d5573d6000803e3d6000fd5b505050506040513d601f19601f820116820180604052508101906109f9919061113a565b15610a515760405162461bcd60e51b815260206004820152602260248201527f434450436f6e74726163743a20426f6420697320616c7265616479206c6f636b604482015261195960f21b60648201526084016103cb565b60065460405163f435f5a760e01b81523060048201526001600160a01b039091169063f435f5a790602401600060405180830381600087803b158015610a9657600080fd5b505af1158015610aaa573d6000803e3d6000fd5b50506006805460ff60a01b1916600160a01b1790555050565b610acb610bea565b6001600160a01b038116610af557604051631e4fbdf760e01b8152600060048201526024016103cb565b610afe81610c51565b50565b610b0e8383836001610cd9565b505050565b6001600160a01b03838116600090815260016020908152604080832093861683529290522054600019811461063f5781811015610b7c57604051637dc7a0d960e11b81526001600160a01b038416600482015260248101829052604481018390526064016103cb565b61063f84848484036000610cd9565b6001600160a01b038316610bb557604051634b637e8f60e11b8152600060048201526024016103cb565b6001600160a01b038216610bdf5760405163ec442f0560e01b8152600060048201526024016103cb565b610b0e838383610dae565b6005546001600160a01b0316331461055b5760405163118cdaa760e01b81523360048201526024016103cb565b6001600160a01b038216610c4157604051634b637e8f60e11b8152600060048201526024016103cb565b610c4d82600083610dae565b5050565b600580546001600160a01b038381166001600160a01b0319831681179093556040519116919082907f8be0079c531659141344cd1fd0a4f28419497f9722a3daafe3b4186f6b6457e090600090a35050565b6001600160a01b038216610ccd5760405163ec442f0560e01b8152600060048201526024016103cb565b610c4d60008383610dae565b6001600160a01b038416610d035760405163e602df0560e01b8152600060048201526024016103cb565b6001600160a01b038316610d2d57604051634a1406b160e11b8152600060048201526024016103cb565b6001600160a01b038085166000908152600160209081526040808320938716835292905220829055801561063f57826001600160a01b0316846001600160a01b03167f8c5be1e5ebec7d5bd14f71427d1e84f3dd0314c0f7b2291e5b200ac8c7c3b92584604051610da091815260200190565b60405180910390a350505050565b6001600160a01b038316610dd9578060026000828254610dce919061110a565b90915550610e4b9050565b6001600160a01b03831660009081526020819052604090205481811015610e2c5760405163391434e360e21b81526001600160a01b038516600482015260248101829052604481018390526064016103cb565b6001600160a01b03841660009081526020819052604090209082900390555b6001600160a01b038216610e6757600280548290039055610e86565b6001600160a01b03821660009081526020819052604090208054820190555b816001600160a01b0316836001600160a01b03167fddf252ad1be2c89b69c2b068fc378daa952ba7f163c4a11628f55a4df523b3ef83604051610ecb91815260200190565b60405180910390a3505050565b602081526000825180602084015260005b81811015610f065760208186018101516040868401015201610ee9565b506000604082850101526040601f19601f83011684010191505092915050565b6001600160a01b0381168114610afe57600080fd5b60008060408385031215610f4e57600080fd5b8235610f5981610f26565b946020939093013593505050565b600080600060608486031215610f7c57600080fd5b8335610f8781610f26565b92506020840135610f9781610f26565b929592945050506040919091013590565b600060208284031215610fba57600080fd5b8135610fc581610f26565b9392505050565b600060208284031215610fde57600080fd5b5035919050565b60008060408385031215610ff857600080fd5b823561100381610f26565b9150602083013561101381610f26565b809150509250929050565b600181811c9082168061103257607f821691505b60208210810361105257634e487b7160e01b600052602260045260246000fd5b50919050565b6020808252601f908201527f434450436f6e74726163743a20426f64206d757374206265206c6f636b656400604082015260600190565b6000602082840312156110a157600080fd5b5051919050565b634e487b7160e01b600052601160045260246000fd5b8082028115828204841417610370576103706110a8565b6000826110f257634e487b7160e01b600052601260045260246000fd5b500490565b81810381811115610370576103706110a8565b80820180821115610370576103706110a8565b60006020828403121561112f57600080fd5b8151610fc581610f26565b60006020828403121561114c57600080fd5b81518015158114610fc557600080fdfea2646970667358221220906c24fab96ae4b0ebc32f758efac6748be2bab98d137490840556738241df8c64736f6c634300081b0033","linkReferences":{}},"methodIdentifiers":{"COLLATERAL_RATIO()":"d9e69a05","LIQUIDATION_THRESHOLD()":"90a8ae9b","allowance(address,address)":"dd62ed3e","approve(address,uint256)":"095ea7b3","balanceOf(address)":"70a08231","bod()":"7d05a164","burnStablecoin(uint256)":"90218cff","decimals()":"313ce567","liquidate()":"28a07025","lockBod()":"f030da46","mintStablecoin(uint256)":"a0b4dbb1","name()":"06fdde03","owner()":"8da5cb5b","renounceOwnership()":"715018a6","symbol()":"95d89b41","totalSupply()":"18160ddd","transfer(address,uint256)":"a9059cbb","transferFrom(address,address,uint256)":"23b872dd","transferOwnership(address)":"f2fde38b","unlockBod()":"8b644650"},"id":41}