{"abi":[{"type":"function","name":"createBod","inputs":[{"name":"bitcoinAddress","type":"string","internalType":"string"}],"outputs":[{"name":"","type":"address","internalType":"address"}],"stateMutability":"nonpayable"},{"type":"function","name":"getBod","inputs":[{"name":"bodOwner","type":"address","internalType":"address"}],"outputs":[{"name":"","type":"address","internalType":"address"}],"stateMutability":"view"},{"type":"function","name":"hasBod","inputs":[{"name":"bodOwner","type":"address","internalType":"address"}],"outputs":[{"name":"","type":"bool","internalType":"bool"}],"stateMutability":"view"},{"type":"function","name":"initialize","inputs":[{"name":"initialOwner","type":"address","internalType":"address"}],"outputs":[],"stateMutability":"nonpayable"},{"type":"function","name":"lockBitcoin","inputs":[{"name":"btcTxHash","type":"bytes32","internalType":"bytes32"},{"name":"amount","type":"uint256","internalType":"uint256"}],"outputs":[],"stateMutability":"nonpayable"},{"type":"function","name":"numBods","inputs":[],"outputs":[{"name":"","type":"uint256","internalType":"uint256"}],"stateMutability":"view"},{"type":"function","name":"owner","inputs":[],"outputs":[{"name":"","type":"address","internalType":"address"}],"stateMutability":"view"},{"type":"function","name":"ownerToBod","inputs":[{"name":"","type":"address","internalType":"address"}],"outputs":[{"name":"","type":"address","internalType":"contract Bod"}],"stateMutability":"view"},{"type":"function","name":"renounceOwnership","inputs":[],"outputs":[],"stateMutability":"nonpayable"},{"type":"function","name":"transferOwnership","inputs":[{"name":"newOwner","type":"address","internalType":"address"}],"outputs":[],"stateMutability":"nonpayable"},{"type":"event","name":"BodCreated","inputs":[{"name":"owner","type":"address","indexed":true,"internalType":"address"},{"name":"bodAddress","type":"address","indexed":false,"internalType":"address"},{"name":"bitcoinAddress","type":"string","indexed":false,"internalType":"string"}],"anonymous":false},{"type":"event","name":"Initialized","inputs":[{"name":"version","type":"uint64","indexed":false,"internalType":"uint64"}],"anonymous":false},{"type":"event","name":"OwnershipTransferred","inputs":[{"name":"previousOwner","type":"address","indexed":true,"internalType":"address"},{"name":"newOwner","type":"address","indexed":true,"internalType":"address"}],"anonymous":false},{"type":"error","name":"InvalidInitialization","inputs":[]},{"type":"error","name":"NotInitializing","inputs":[]},{"type":"error","name":"OwnableInvalidOwner","inputs":[{"name":"owner","type":"address","internalType":"address"}]},{"type":"error","name":"OwnableUnauthorizedAccount","inputs":[{"name":"account","type":"address","internalType":"address"}]},{"type":"error","name":"ReentrancyGuardReentrantCall","inputs":[]}],"bytecode":{"object":"0x6080604052348015600f57600080fd5b5061174f8061001f6000396000f3fe608060405234801561001057600080fd5b506004361061009e5760003560e01c80638da5cb5b116100665780638da5cb5b1461015b5780639ac6d2441461018b5780639adcf6851461019e578063c4d66de8146101ca578063f2fde38b146101dd57600080fd5b806317d6b2df146100a357806347283611146100e9578063715018a614610127578063717e7c371461013157806380a9b84914610148575b600080fd5b6100cc6100b136600461080f565b6000602081905290815260409020546001600160a01b031681565b6040516001600160a01b0390911681526020015b60405180910390f35b6101176100f736600461080f565b6001600160a01b0390811660009081526020819052604090205416151590565b60405190151581526020016100e0565b61012f6101f0565b005b61013a60015481565b6040519081526020016100e0565b6100cc610156366004610855565b610204565b7f9016d09d72d40fdae2fd8ceac6b6234c7706214fd39c1cd1e609a0528c199300546001600160a01b03166100cc565b61012f61019936600461090e565b610417565b6100cc6101ac36600461080f565b6001600160a01b039081166000908152602081905260409020541690565b61012f6101d836600461080f565b610511565b61012f6101eb36600461080f565b610632565b6101f8610670565b61020260006106cb565b565b600061020e61073c565b336000908152602081905260409020546001600160a01b0316156102855760405162461bcd60e51b8152602060048201526024808201527f426f644d616e616765723a2053656e64657220616c726561647920686173206160448201526308189bd960e21b60648201526084015b60405180910390fd5b60008251116102ea5760405162461bcd60e51b815260206004820152602b60248201527f426f644d616e616765723a20426974636f696e20616464726573732063616e6e60448201526a6f7420626520656d70747960a81b606482015260840161027c565b60006040516102f890610802565b604051809103906000f080158015610314573d6000803e3d6000fd5b506040516322b8f1d360e11b81529091506001600160a01b03821690634571e3a69061034890339030908890600401610976565b600060405180830381600087803b15801561036257600080fd5b505af1158015610376573d6000803e3d6000fd5b505033600090815260208190526040812080546001600160a01b0319166001600160a01b03861617905560018054935091506103b1836109ab565b9190505550336001600160a01b03167f25ffe1ded201d9a79275b95ce0f5e2198b84e5ac4838d72eb5f86ee1f439f8c582856040516103f19291906109d2565b60405180910390a2905061041260016000805160206116fa83398151915255565b919050565b61041f61073c565b336000908152602081905260409020546001600160a01b0316806104945760405162461bcd60e51b815260206004820152602660248201527f426f644d616e616765723a2053656e64657220646f6573206e6f742068617665604482015265081848189bd960d21b606482015260840161027c565b6040516306168d5360e41b815260048101839052602481018490526001600160a01b03821690636168d53090604401600060405180830381600087803b1580156104dd57600080fd5b505af11580156104f1573d6000803e3d6000fd5b505050505061050d60016000805160206116fa83398151915255565b5050565b7ff0c57e16840df040f15088dc2f81fe391c3923bec73e23a9662efc9c229c6a008054600160401b810460ff16159067ffffffffffffffff166000811580156105575750825b905060008267ffffffffffffffff1660011480156105745750303b155b905081158015610582575080155b156105a05760405163f92ee8a960e01b815260040160405180910390fd5b845467ffffffffffffffff1916600117855583156105ca57845460ff60401b1916600160401b1785555b6105d386610788565b6105db610799565b6105e486610632565b831561062a57845460ff60401b19168555604051600181527fc7f505b2f371ae2175ee4913f4499e1f2633a7b5936321eed1cdaeb6115181d29060200160405180910390a15b505050505050565b61063a610670565b6001600160a01b03811661066457604051631e4fbdf760e01b81526000600482015260240161027c565b61066d816106cb565b50565b336106a27f9016d09d72d40fdae2fd8ceac6b6234c7706214fd39c1cd1e609a0528c199300546001600160a01b031690565b6001600160a01b0316146102025760405163118cdaa760e01b815233600482015260240161027c565b7f9016d09d72d40fdae2fd8ceac6b6234c7706214fd39c1cd1e609a0528c19930080546001600160a01b031981166001600160a01b03848116918217845560405192169182907f8be0079c531659141344cd1fd0a4f28419497f9722a3daafe3b4186f6b6457e090600090a3505050565b6000805160206116fa83398151915280546001190161076e57604051633ee5aeb560e01b815260040160405180910390fd5b60029055565b60016000805160206116fa83398151915255565b6107906107a9565b61066d816107f2565b6107a16107a9565b6102026107fa565b7ff0c57e16840df040f15088dc2f81fe391c3923bec73e23a9662efc9c229c6a0054600160401b900460ff1661020257604051631afcd79f60e31b815260040160405180910390fd5b61063a6107a9565b6107746107a9565b610cfb806109ff83390190565b60006020828403121561082157600080fd5b81356001600160a01b038116811461083857600080fd5b9392505050565b634e487b7160e01b600052604160045260246000fd5b60006020828403121561086757600080fd5b813567ffffffffffffffff81111561087e57600080fd5b8201601f8101841361088f57600080fd5b803567ffffffffffffffff8111156108a9576108a961083f565b604051601f8201601f19908116603f0116810167ffffffffffffffff811182821017156108d8576108d861083f565b6040528181528282016020018610156108f057600080fd5b81602084016020830137600091810160200191909152949350505050565b6000806040838503121561092157600080fd5b50508035926020909101359150565b6000815180845260005b818110156109565760208185018101518683018201520161093a565b506000602082860101526020601f19601f83011685010191505092915050565b6001600160a01b038481168252831660208201526060604082018190526000906109a290830184610930565b95945050505050565b6000600182016109cb57634e487b7160e01b600052601160045260246000fd5b5060010190565b6001600160a01b03831681526040602082018190526000906109f690830184610930565b94935050505056fe6080604052348015600f57600080fd5b50610cdc8061001f6000396000f3fe608060405234801561001057600080fd5b50600436106100ea5760003560e01c80636cbb721f1161008c578063a69df4b511610066578063a69df4b5146101c1578063b9c53352146101c9578063c4f709ea146101e1578063f435f5a7146101ea57600080fd5b80636cbb721f146101875780637651bc921461019f578063a4e2d634146101b457600080fd5b80634571e3a6116100c85780634571e3a6146101445780634d183866146101595780636168d5301461016c578063667dafda1461017f57600080fd5b80632df746c8146100ef57806334f158d41461011f578063441293c214610131575b600080fd5b600154610102906001600160a01b031681565b6040516001600160a01b0390911681526020015b60405180910390f35b6002545b604051908152602001610116565b600054610102906001600160a01b031681565b6101576101523660046109cb565b6101fd565b005b610157610167366004610aa5565b610470565b61015761017a366004610ac7565b610541565b610123600181565b600254600111155b6040519015158152602001610116565b6101a7610711565b6040516101169190610ae9565b60035461018f9060ff1681565b61015761079f565b6003546101029061010090046001600160a01b031681565b61012360025481565b6101576101f8366004610aa5565b61089c565b7ff0c57e16840df040f15088dc2f81fe391c3923bec73e23a9662efc9c229c6a008054600160401b810460ff16159067ffffffffffffffff166000811580156102435750825b905060008267ffffffffffffffff1660011480156102605750303b155b90508115801561026e575080155b1561028c5760405163f92ee8a960e01b815260040160405180910390fd5b845467ffffffffffffffff1916600117855583156102b657845460ff60401b1916600160401b1785555b6001600160a01b03881661031d5760405162461bcd60e51b8152602060048201526024808201527f426f643a20626f644f776e65722063616e6e6f74206265207a65726f206164646044820152637265737360e01b60648201526084015b60405180910390fd5b6001600160a01b0387166103825760405162461bcd60e51b815260206004820152602660248201527f426f643a20626f644d616e616765722063616e6e6f74206265207a65726f206160448201526564647265737360d01b6064820152608401610314565b60008651116103df5760405162461bcd60e51b8152602060048201526024808201527f426f643a20426974636f696e20616464726573732063616e6e6f7420626520656044820152636d70747960e01b6064820152608401610314565b600080546001600160a01b03808b166001600160a01b03199283161790925560018054928a1692909116919091179055600461041b8782610bc0565b5060028055831561046657845460ff60401b19168555604051600181527fc7f505b2f371ae2175ee4913f4499e1f2633a7b5936321eed1cdaeb6115181d29060200160405180910390a15b5050505050505050565b6000546001600160a01b031633146104be5760405162461bcd60e51b81526020600482015260116024820152702137b21d103737ba103137b227bbb732b960791b6044820152606401610314565b6001600160a01b03811661051f5760405162461bcd60e51b815260206004820152602260248201527f426f643a206e6577206f776e657220697320746865207a65726f206164647265604482015261737360f01b6064820152608401610314565b600080546001600160a01b0319166001600160a01b0392909216919091179055565b6001546001600160a01b031633146105915760405162461bcd60e51b81526020600482015260136024820152722137b21d103737ba103137b226b0b730b3b2b960691b6044820152606401610314565b60035460ff16156105d25760405162461bcd60e51b815260206004820152600b60248201526a109bd90e881b1bd8dad95960aa1b6044820152606401610314565b6000821161062d5760405162461bcd60e51b815260206004820152602260248201527f426f643a20416d6f756e74206d7573742062652067726561746572207468616e604482015261020360f41b6064820152608401610314565b806106885760405162461bcd60e51b815260206004820152602560248201527f426f643a20496e76616c696420426974636f696e207472616e73616374696f6e604482015264040d0c2e6d60db1b6064820152608401610314565b816002600082825461069a9190610c7f565b909155505060408051828152602081018490527fc8375aa38b0a27f792dcc44eb80c1a94f7e3d766925a29724142fc64455feb0c910160405180910390a160405182815233907f9936746a4565f9766fa768f88f56a7487c78780ac179562773d1c75c5269537e9060200160405180910390a25050565b6004805461071e90610b37565b80601f016020809104026020016040519081016040528092919081815260200182805461074a90610b37565b80156107975780601f1061076c57610100808354040283529160200191610797565b820191906000526020600020905b81548152906001019060200180831161077a57829003601f168201915b505050505081565b6000546001600160a01b03163314806107c7575060035461010090046001600160a01b031633145b6108135760405162461bcd60e51b815260206004820152601d60248201527f426f643a206e6f7420617574686f72697a656420746f20756e6c6f636b0000006044820152606401610314565b60035460ff166108575760405162461bcd60e51b815260206004820152600f60248201526e109bd90e881b9bdd081b1bd8dad959608a1b6044820152606401610314565b600380546001600160a81b03191690556040513381527f2d882c9f6540c6c19a42cb6c36a7a0dc52fb431f9a581f3a24c2c0e7d2f8818a9060200160405180910390a1565b6000546001600160a01b031633146108ea5760405162461bcd60e51b81526020600482015260116024820152702137b21d103737ba103137b227bbb732b960791b6044820152606401610314565b60035460ff161561092b5760405162461bcd60e51b815260206004820152600b60248201526a109bd90e881b1bd8dad95960aa1b6044820152606401610314565b600380546001600160a01b038316610100026001600160a81b03199091161760011790556040517fd75ad2e4276a510be5bc2de949c33a8d0fed0662f0dbd768261866f3e5152dbb9061098e9083906001600160a01b0391909116815260200190565b60405180910390a150565b80356001600160a01b03811681146109b057600080fd5b919050565b634e487b7160e01b600052604160045260246000fd5b6000806000606084860312156109e057600080fd5b6109e984610999565b92506109f760208501610999565b9150604084013567ffffffffffffffff811115610a1357600080fd5b8401601f81018613610a2457600080fd5b803567ffffffffffffffff811115610a3e57610a3e6109b5565b604051601f8201601f19908116603f0116810167ffffffffffffffff81118282101715610a6d57610a6d6109b5565b604052818152828201602001881015610a8557600080fd5b816020840160208301376000602083830101528093505050509250925092565b600060208284031215610ab757600080fd5b610ac082610999565b9392505050565b60008060408385031215610ada57600080fd5b50508035926020909101359150565b602081526000825180602084015260005b81811015610b175760208186018101516040868401015201610afa565b506000604082850101526040601f19601f83011684010191505092915050565b600181811c90821680610b4b57607f821691505b602082108103610b6b57634e487b7160e01b600052602260045260246000fd5b50919050565b601f821115610bbb57806000526020600020601f840160051c81016020851015610b985750805b601f840160051c820191505b81811015610bb85760008155600101610ba4565b50505b505050565b815167ffffffffffffffff811115610bda57610bda6109b5565b610bee81610be88454610b37565b84610b71565b6020601f821160018114610c225760008315610c0a5750848201515b600019600385901b1c1916600184901b178455610bb8565b600084815260208120601f198516915b82811015610c525787850151825560209485019460019092019101610c32565b5084821015610c705786840151600019600387901b60f8161c191681555b50505050600190811b01905550565b80820180821115610ca057634e487b7160e01b600052601160045260246000fd5b9291505056fea2646970667358221220ba765cb440ac60e41c6a452fa85d335c188715e4ff5ea9cd4baa0d164d00eae664736f6c634300081b00339b779b17422d0df92223018b32b4d1fa46e071723d6817e2486d003becc55f00a2646970667358221220f68e0c0338a915e21df795c0ab6c322a96aeb6ecc5b52ced1dbc4810dc1891d964736f6c634300081b0033","linkReferences":{}},"methodIdentifiers":{"createBod(string)":"80a9b849","getBod(address)":"9adcf685","hasBod(address)":"47283611","initialize(address)":"c4d66de8","lockBitcoin(bytes32,uint256)":"9ac6d244","numBods()":"717e7c37","owner()":"8da5cb5b","ownerToBod(address)":"17d6b2df","renounceOwnership()":"715018a6","transferOwnership(address)":"f2fde38b"},"id":40}