{"abi":[{"type":"function","name":"MIN_BITCOIN_REQUIRED","inputs":[],"outputs":[{"name":"","type":"uint256","internalType":"uint256"}],"stateMutability":"view"},{"type":"function","name":"bitcoinAddress","inputs":[],"outputs":[{"name":"","type":"string","internalType":"string"}],"stateMutability":"view"},{"type":"function","name":"bodManager","inputs":[],"outputs":[{"name":"","type":"address","internalType":"address"}],"stateMutability":"view"},{"type":"function","name":"bodOwner","inputs":[],"outputs":[{"name":"","type":"address","internalType":"address"}],"stateMutability":"view"},{"type":"function","name":"canLock","inputs":[],"outputs":[{"name":"","type":"bool","internalType":"bool"}],"stateMutability":"view"},{"type":"function","name":"depositBitcoin","inputs":[{"name":"amount","type":"uint256","internalType":"uint256"},{"name":"btcTxHash","type":"bytes32","internalType":"bytes32"}],"outputs":[],"stateMutability":"nonpayable"},{"type":"function","name":"getLockedBitcoin","inputs":[],"outputs":[{"name":"","type":"uint256","internalType":"uint256"}],"stateMutability":"view"},{"type":"function","name":"initialize","inputs":[{"name":"_bodOwner","type":"address","internalType":"address"},{"name":"_bodManager","type":"address","internalType":"address"},{"name":"_bitcoinAddress","type":"string","internalType":"string"}],"outputs":[],"stateMutability":"nonpayable"},{"type":"function","name":"isLocked","inputs":[],"outputs":[{"name":"","type":"bool","internalType":"bool"}],"stateMutability":"view"},{"type":"function","name":"lock","inputs":[{"name":"locker","type":"address","internalType":"address"}],"outputs":[],"stateMutability":"nonpayable"},{"type":"function","name":"lockedBitcoin","inputs":[],"outputs":[{"name":"","type":"uint256","internalType":"uint256"}],"stateMutability":"view"},{"type":"function","name":"lockedBy","inputs":[],"outputs":[{"name":"","type":"address","internalType":"address"}],"stateMutability":"view"},{"type":"function","name":"setBodOwner","inputs":[{"name":"_newOwner","type":"address","internalType":"address"}],"outputs":[],"stateMutability":"nonpayable"},{"type":"function","name":"unlock","inputs":[],"outputs":[],"stateMutability":"nonpayable"},{"type":"event","name":"BitcoinLocked","inputs":[{"name":"btcTxHash","type":"bytes32","indexed":false,"internalType":"bytes32"},{"name":"amount","type":"uint256","indexed":false,"internalType":"uint256"}],"anonymous":false},{"type":"event","name":"BodLocked","inputs":[{"name":"locker","type":"address","indexed":false,"internalType":"address"}],"anonymous":false},{"type":"event","name":"BodUnlocked","inputs":[{"name":"unlocker","type":"address","indexed":false,"internalType":"address"}],"anonymous":false},{"type":"event","name":"DepositReceived","inputs":[{"name":"operator","type":"address","indexed":true,"internalType":"address"},{"name":"amount","type":"uint256","indexed":false,"internalType":"uint256"}],"anonymous":false},{"type":"event","name":"Initialized","inputs":[{"name":"version","type":"uint64","indexed":false,"internalType":"uint64"}],"anonymous":false},{"type":"error","name":"InvalidInitialization","inputs":[]},{"type":"error","name":"NotInitializing","inputs":[]},{"type":"error","name":"ReentrancyGuardReentrantCall","inputs":[]}],"bytecode":{"object":"0x6080604052348015600f57600080fd5b50610cdc8061001f6000396000f3fe608060405234801561001057600080fd5b50600436106100ea5760003560e01c80636cbb721f1161008c578063a69df4b511610066578063a69df4b5146101c5578063b9c53352146101cd578063c4f709ea146101e5578063f435f5a7146101ee57600080fd5b80636cbb721f146101895780637651bc92146101a3578063a4e2d634146101b857600080fd5b80634571e3a6116100c85780634571e3a6146101445780634d183866146101595780636168d5301461016c578063667dafda1461017f57600080fd5b80632df746c8146100ef57806334f158d41461011f578063441293c214610131575b600080fd5b600154610102906001600160a01b031681565b6040516001600160a01b0390911681526020015b60405180910390f35b6002545b604051908152602001610116565b600054610102906001600160a01b031681565b6101576101523660046109cb565b610201565b005b610157610167366004610aa5565b610470565b61015761017a366004610ac7565b610541565b610123620186a081565b600254620186a011155b6040519015158152602001610116565b6101ab610711565b6040516101169190610ae9565b6003546101939060ff1681565b61015761079f565b6003546101029061010090046001600160a01b031681565b61012360025481565b6101576101fc366004610aa5565b61089c565b7ff0c57e16840df040f15088dc2f81fe391c3923bec73e23a9662efc9c229c6a008054600160401b810460ff16159067ffffffffffffffff166000811580156102475750825b905060008267ffffffffffffffff1660011480156102645750303b155b905081158015610272575080155b156102905760405163f92ee8a960e01b815260040160405180910390fd5b845467ffffffffffffffff1916600117855583156102ba57845460ff60401b1916600160401b1785555b6001600160a01b0388166103215760405162461bcd60e51b8152602060048201526024808201527f426f643a20626f644f776e65722063616e6e6f74206265207a65726f206164646044820152637265737360e01b60648201526084015b60405180910390fd5b6001600160a01b0387166103865760405162461bcd60e51b815260206004820152602660248201527f426f643a20626f644d616e616765722063616e6e6f74206265207a65726f206160448201526564647265737360d01b6064820152608401610318565b60008651116103e35760405162461bcd60e51b8152602060048201526024808201527f426f643a20426974636f696e20616464726573732063616e6e6f7420626520656044820152636d70747960e01b6064820152608401610318565b600080546001600160a01b03808b166001600160a01b03199283161790925560018054928a1692909116919091179055600461041f8782610bc0565b50831561046657845460ff60401b19168555604051600181527fc7f505b2f371ae2175ee4913f4499e1f2633a7b5936321eed1cdaeb6115181d29060200160405180910390a15b5050505050505050565b6000546001600160a01b031633146104be5760405162461bcd60e51b81526020600482015260116024820152702137b21d103737ba103137b227bbb732b960791b6044820152606401610318565b6001600160a01b03811661051f5760405162461bcd60e51b815260206004820152602260248201527f426f643a206e6577206f776e657220697320746865207a65726f206164647265604482015261737360f01b6064820152608401610318565b600080546001600160a01b0319166001600160a01b0392909216919091179055565b6001546001600160a01b031633146105915760405162461bcd60e51b81526020600482015260136024820152722137b21d103737ba103137b226b0b730b3b2b960691b6044820152606401610318565b60035460ff16156105d25760405162461bcd60e51b815260206004820152600b60248201526a109bd90e881b1bd8dad95960aa1b6044820152606401610318565b6000821161062d5760405162461bcd60e51b815260206004820152602260248201527f426f643a20416d6f756e74206d7573742062652067726561746572207468616e604482015261020360f41b6064820152608401610318565b806106885760405162461bcd60e51b815260206004820152602560248201527f426f643a20496e76616c696420426974636f696e207472616e73616374696f6e604482015264040d0c2e6d60db1b6064820152608401610318565b816002600082825461069a9190610c7f565b909155505060408051828152602081018490527fc8375aa38b0a27f792dcc44eb80c1a94f7e3d766925a29724142fc64455feb0c910160405180910390a160405182815233907f9936746a4565f9766fa768f88f56a7487c78780ac179562773d1c75c5269537e9060200160405180910390a25050565b6004805461071e90610b37565b80601f016020809104026020016040519081016040528092919081815260200182805461074a90610b37565b80156107975780601f1061076c57610100808354040283529160200191610797565b820191906000526020600020905b81548152906001019060200180831161077a57829003601f168201915b505050505081565b6000546001600160a01b03163314806107c7575060035461010090046001600160a01b031633145b6108135760405162461bcd60e51b815260206004820152601d60248201527f426f643a206e6f7420617574686f72697a656420746f20756e6c6f636b0000006044820152606401610318565b60035460ff166108575760405162461bcd60e51b815260206004820152600f60248201526e109bd90e881b9bdd081b1bd8dad959608a1b6044820152606401610318565b600380546001600160a81b03191690556040513381527f2d882c9f6540c6c19a42cb6c36a7a0dc52fb431f9a581f3a24c2c0e7d2f8818a9060200160405180910390a1565b6000546001600160a01b031633146108ea5760405162461bcd60e51b81526020600482015260116024820152702137b21d103737ba103137b227bbb732b960791b6044820152606401610318565b60035460ff161561092b5760405162461bcd60e51b815260206004820152600b60248201526a109bd90e881b1bd8dad95960aa1b6044820152606401610318565b600380546001600160a01b038316610100026001600160a81b03199091161760011790556040517fd75ad2e4276a510be5bc2de949c33a8d0fed0662f0dbd768261866f3e5152dbb9061098e9083906001600160a01b0391909116815260200190565b60405180910390a150565b80356001600160a01b03811681146109b057600080fd5b919050565b634e487b7160e01b600052604160045260246000fd5b6000806000606084860312156109e057600080fd5b6109e984610999565b92506109f760208501610999565b9150604084013567ffffffffffffffff811115610a1357600080fd5b8401601f81018613610a2457600080fd5b803567ffffffffffffffff811115610a3e57610a3e6109b5565b604051601f8201601f19908116603f0116810167ffffffffffffffff81118282101715610a6d57610a6d6109b5565b604052818152828201602001881015610a8557600080fd5b816020840160208301376000602083830101528093505050509250925092565b600060208284031215610ab757600080fd5b610ac082610999565b9392505050565b60008060408385031215610ada57600080fd5b50508035926020909101359150565b602081526000825180602084015260005b81811015610b175760208186018101516040868401015201610afa565b506000604082850101526040601f19601f83011684010191505092915050565b600181811c90821680610b4b57607f821691505b602082108103610b6b57634e487b7160e01b600052602260045260246000fd5b50919050565b601f821115610bbb57806000526020600020601f840160051c81016020851015610b985750805b601f840160051c820191505b81811015610bb85760008155600101610ba4565b50505b505050565b815167ffffffffffffffff811115610bda57610bda6109b5565b610bee81610be88454610b37565b84610b71565b6020601f821160018114610c225760008315610c0a5750848201515b600019600385901b1c1916600184901b178455610bb8565b600084815260208120601f198516915b82811015610c525787850151825560209485019460019092019101610c32565b5084821015610c705786840151600019600387901b60f8161c191681555b50505050600190811b01905550565b80820180821115610ca057634e487b7160e01b600052601160045260246000fd5b9291505056fea26469706673582212205f9c88c02a578781a1864426aa5cd14922485c2865e7e9c6270932af2cf7d92064736f6c634300081b0033","linkReferences":{}},"methodIdentifiers":{"MIN_BITCOIN_REQUIRED()":"667dafda","bitcoinAddress()":"7651bc92","bodManager()":"2df746c8","bodOwner()":"441293c2","canLock()":"6cbb721f","depositBitcoin(uint256,bytes32)":"6168d530","getLockedBitcoin()":"34f158d4","initialize(address,address,string)":"4571e3a6","isLocked()":"a4e2d634","lock(address)":"f435f5a7","lockedBitcoin()":"c4f709ea","lockedBy()":"b9c53352","setBodOwner(address)":"4d183866","unlock()":"a69df4b5"},"id":39}